:100000000C9434000C9451000C9451000C94510049
:100010000C9451000C9451000C9451000C9451001C
:100020000C9451000C9451000C9451000C9451000C
:100030000C9451000C9451000C9451000C945100FC
:100040000C9451000C9451000C9451000C945100EC
:100050000C9451000C9451000C9451000C945100DC
:100060000C9451000C94510011241FBECFEFD8E026
:10007000DEBFCDBF11E0A0E0B1E0EAECF7E002C0E6
:1000800005900D92AE36B107D9F721E0AEE6B1E0AA
:1000900001C01D92A237B207E1F70E94C0030C9481
:1000A000E3030C94000010926F0110926E01109205
:1000B00071011092700180E090E0880F991FFC019F
:1000C000EC59FE4F808188B9E0917001F091710187
:1000D000EE0FFF1FE65AFE4F808185B98FE99FE042
:1000E0000197F1F700C000008091700190917101BB
:1000F0000196909371018093700185309105ECF227
:1001000080916E0190916F01019690936F018093A1
:100110006E01843691055CF2089510926F01109281
:100120006E01109271011092700180E090E0880FD2
:10013000991FFC01EC59FE4F808188B9E091700154
:10014000F0917101EE0FFF1FE05BFE4F808185B9DA
:100150008FE99FE00197F1F700C0000080917001E6
:100160009091710101969093710180937001853097
:100170009105ECF280916E0190916F010196909340
:100180006F0180936E01843691055CF208951092A0
:100190006F0110926E01109271011092700180E057
:1001A00090E0880F991FFC01EC59FE4F808188B9BF
:1001B000E0917001F0917101EE0FFF1FEA5BFE4FBD
:1001C000808185B98FE99FE00197F1F700C00000B9
:1001D00080917001909171010196909371018093CB
:1001E000700185309105ECF280916E0190916F0164
:1001F000019690936F0180936E01843691055CF2B5
:10020000089510926F0110926E0110927101109278
:10021000700180E090E0880F991FFC01EC59FE4FBF
:10022000808188B9E0917001F0917101EE0FFF1F9C
:10023000E45CFE4F808185B98FE99FE00197F1F77B
:1002400000C000008091700190917101019690931F
:1002500071018093700185309105ECF280916E01FF
:1002600090916F01019690936F0180936E01843697
:1002700091055CF2089510926F0110926E01109238
:1002800071011092700180E090E0880F991FFC01CD
:10029000EC59FE4F808188B9E0917001F0917101B5
:1002A000EE0FFF1FEE5CFE4F808185B98FE99FE066
:1002B0000197F1F700C000008091700190917101E9
:1002C0000196909371018093700185309105ECF255
:1002D00080916E0190916F01019690936F018093D0
:1002E0006E01843691055CF2089510926F011092B0
:1002F0006E01109271011092700180E090E0880F01
:10030000991FFC01EC59FE4F808188B9E091700182
:10031000F0917101EE0FFF1FE85DFE4F808185B9FE
:100320008FE99FE00197F1F700C000008091700114
:1003300090917101019690937101809370018530C5
:100340009105ECF280916E0190916F01019690936E
:100350006F0180936E01843691055CF208951092CE
:100360006F0110926E01109271011092700180E085
:1003700090E0880F991FFC01EC59FE4F808188B9ED
:10038000E0917001F0917101EE0FFF1FE25EFE4FF0
:10039000808185B98FE99FE00197F1F700C00000E7
:1003A00080917001909171010196909371018093F9
:1003B000700185309105ECF280916E0190916F0192
:1003C000019690936F0180936E01843691055CF2E3
:1003D000089510926F0110926E01109271011092A7
:1003E000700180E090E0880F991FFC01EC59FE4FEE
:1003F000808188B9E0917001F0917101EE0FFF1FCB
:10040000EC5EFE4F808185B98FE99FE00197F1F79F
:1004100000C000008091700190917101019690934D
:1004200071018093700185309105ECF280916E012D
:1004300090916F01019690936F0180936E018436C5
:1004400091055CF2089510926F0110926E01109266
:1004500071011092700180E090E0880F991FFC01FB
:10046000EC59FE4F808188B9E0917001F0917101E3
:10047000EE0FFF1FE65FFE4F808185B98FE99FE099
:100480000197F1F700C00000809170019091710117
:100490000196909371018093700185309105ECF283
:1004A00080916E0190916F01019690936F018093FE
:1004B0006E01843691055CF2089510926F011092DE
:1004C0006E01109271011092700180E090E0880F2F
:1004D000991FFC01EC59FE4F808188B9E0917001B1
:1004E000F0917101EE0FFF1FE050FF4F808185B941
:1004F0008FE99FE00197F1F700C000008091700143
:1005000090917101019690937101809370018530F3
:100510009105ECF280916E0190916F01019690939C
:100520006F0180936E01843691055CF208958FE32C
:1005300085B98EEF88B92FEF81EE94E0215080408D
:100540009040E1F700C000008DEF88B92FEF81EEF9
:1005500094E0215080409040E1F700C000008BEF14
:1005600088B92FEF81EE94E0215080409040E1F770
:1005700000C0000087EF88B92FEF81EE94E0215092
:1005800080409040E1F700C000008FEE88B92FEF67
:1005900081EE94E0215080409040E1F700C00000DF
:1005A000089518B881E085B92FEF81EE94E02150CD
:1005B00080409040E1F700C0000082E085B92FEF55
:1005C00081EE94E0215080409040E1F700C00000AF
:1005D00084E085B92FEF81EE94E021508040904077
:1005E000E1F700C0000088E085B92FEF81EE94E0CC
:1005F000215080409040E1F700C0000080E185B9C3
:100600002FEF81EE94E0215080409040E1F700C050
:10061000000080E285B92FEF81EE94E02150804008
:100620009040E1F700C0000008958EEF88B92FEFE9
:1006300081EE94E0215080409040E1F700C000003E
:100640008DEF88B92FEF81EE94E0215080409040EB
:10065000E1F700C000008BEF88B92FEF81EE94E046
:10066000215080409040E1F700C0000087EF88B93A
:100670002FEF81EE94E0215080409040E1F700C0E0
:1006800000008FEE88B92FEF81EE94E0215080407A
:100690009040E1F700C00000089581E085B92FEF98
:1006A00081EE94E0215080409040E1F700C00000CE
:1006B00082E085B92FEF81EE94E021508040904098
:1006C000E1F700C0000084E085B92FEF81EE94E0EF
:1006D000215080409040E1F700C0000088E085B9DB
:1006E0002FEF81EE94E0215080409040E1F700C070
:1006F000000080E185B92FEF81EE94E02150804029
:100700009040E1F700C0000080E285B92FEF81EE54
:1007100094E0215080409040E1F700C0000008952F
:1007200015B818B881E085B90E94150382E085B933
:100730000E94150384E085B90E94150388E085B9FD
:100740000E94150380E185B90E94150380E285B9F6
:100750000E94150308958EEF88B90E944D038DEF16
:1007600088B90E944D038BEF88B90E944D0387EF33
:1007700088B90E944D038FEE88B90E944D030895F9
:100780008FE384B98FE187B915B818B80E94970232
:100790000E94D1020E9490030E94AB030E9453006A
:1007A0000E948D000E94C7000E9401010E943B012F
:1007B0000E9475010E94AF010E94E9010E9423027C
:0A07C0000E945D02E3CFF894FFCF22
:1007CA0000003E0022003E00000000002E002A0029
:1007DA003E00000000003E002A003E00000000002B
:1007EA00020002003E00000000003E002A003A001B
:1007FA00000000002E002A003A00000000000E004F
:10080A0008003E00000000002A002A003E00000006
:10081A0000003A002A002E000000000024003E00DA
:0E082A0020000000FE00FD00FB00F700EF00C4
:00000001FF
