S01C00004C45445F427574746F6E5F496E746572727570742E737265632C
S11300000C9434000C9453000C9451000C94510043
S11300100C9451000C9451000C9451000C94510018
S11300200C9451000C9451000C9451000C94510008
S11300300C9451000C9451000C9451000C945100F8
S11300400C9451000C9451000C9451000C945100E8
S11300500C9451000C9451000C9451000C945100D8
S11300600C9451000C94510011241FBECFEFD8E022
S1130070DEBFCDBF11E0A0E0B1E0E2EFF1E002C0ED
S113008005900D92A031B107D9F721E0A0E1B1E0CC
S113009001C01D92A131B207E1F70E94E4000C9463
S11300A0F7000C9400001F920F920FB60F921124C8
S11300B02F938F939F939091100181E098279093B1
S11300C0100198B1892788B92FEF85EA9EE0215065
S11300D080409040E1F700C000009F918F912F91E4
S11300E00F900FBE0F901F9018958AEA8BB92FEFCF
S11300F081EE94E0215080409040E1F700C0000080
S113010085E58BB92FEF81EE94E02150804090403B
S1130110E1F700C000000895CF93DF93CDB7DEB7B9
S113012060970FB6F894DEBF0FBECDBF80E1E0E06C
S1130130F1E0DE01119601900D928A95E1F7DE015E
S11301401196FE01719641E050E02BB18C9112960C
S1130150BA0102C0660F771F8A95E2F7CB01822BA2
S11301608BB97FEF81EE94E0715080409040E1F7CD
S113017000C00000AE17BF0741F7BE016D5F7F4F9F
S113018041E050E09BB132979A01008002C0220FF7
S1130190331F0A94E2F7822F809589238BB92FEFBE
S11301A081EE94E0215080409040E1F700C00000CF
S11301B0E617F70739F760960FB6F894DEBF0FBE5F
S11301C0CDBFDF91CF9108958BEF8AB98FEF87B9B7
S11301D01BB8E89A789480911001813019F40E9438
S11301E07500F9CF8111F7CF0E948C00F4CFF894F9
S10501F0FFCF3B
S11301F200000100020003000400050006000700DD
S9030000FC
