:100000000C9434000C9451000C9451000C94510049
:100010000C9451000C9451000C9451000C9451001C
:100020000C9451000C9451000C9451000C9451000C
:100030000C9451000C9451000C9451000C945100FC
:100040000C9451000C9451000C9451000C945100EC
:100050000C9451000C9451000C9451000C945100DC
:100060000C9451000C94510011241FBECFEFD8E026
:10007000DEBFCDBF11E0A0E0B1E0EEEDF1E002C0E7
:1000800005900D92A031B107D9F721E0A0E1B1E0D0
:1000900001C01D92A231B207E1F70E94C4000C9486
:1000A000ED000C9400001BB88AEA8BB92FEF83EDAA
:1000B00090E3215080409040E1F700C0000085E5CA
:1000C0008BB92FEF83ED90E3215080409040E1F712
:1000D00000C000000895CF93DF93CDB7DEB76097DF
:1000E0000FB6F894DEBF0FBECDBF1BB880E1E0E0D5
:1000F000F1E0DE01119601900D928A95E1F7DE01A3
:100100001196FE01719641E050E02BB18C91129650
:10011000BA0102C0660F771F8A95E2F7CB01822BE6
:100120008BB97FEF81EE94E0715080409040E1F711
:1001300000C00000AE17BF0741F7BE016D5F7F4FE3
:1001400041E050E09BB132979A01008002C0220F3B
:10015000331F0A94E2F7822F809589238BB92FEF02
:1001600081EE94E0215080409040E1F700C0000013
:10017000E617F70739F760960FB6F894DEBF0FBEA3
:10018000CDBFDF91CF9108958FEF8AB981E084B917
:10019000189AC1E0D0E0189912C080911001909196
:1001A0001101009729F4D0931101C093100112C0DE
:1001B000019789F7109211011092100106C08091E9
:1001C000100190911101009719F40E946B00E3CF88
:0E01D000019709F70E945300DECFF894FFCF8D
:1001DE0000000100020003000400050006000700F5
:00000001FF
